:020000040800F2
:10000000005000205D040008AD040008AD040008A5
:10001000AD040008AD040008AD04000800000000B5
:10002000000000000000000000000000AD04000817
:10003000AD04000800000000AD040008AD04000895
:10004000AD040008AD040008AD040008AD040008CC
:10005000AD040008AD040008AD040008AD040008BC
:10006000AD040008AD040008AD040008AD040008AC
:10007000AD040008AD040008AD040008AD0400089C
:10008000AD040008AD040008AD040008AD0400088C
:10009000AD040008AD040008AD040008AD0400087C
:1000A000AD040008AD040008AD040008AD0400086C
:1000B000AD040008AD040008AD040008AD0400085C
:1000C000AD040008AD040008AD040008AD0400084C
:1000D000AD040008AD040008AD040008AD0400083C
:1000E000AD040008AD04000800000000AD040008E5
:1000F000AD040008AD040008AD040008AD0400081C
:10010000AD040008AD040008AD040008AD0400080B
:10011000AD040008AD040008AD040008AD040008FB
:10012000AD040008AD040008AD040008AD040008EB
:1001300010B5054C237833B9044B13B10448AFF321
:1001400000800123237010BD00000020000000008B
:10015000F804000808B5034B1BB103490348AFF38B
:10016000008008BD0000000004000020F804000822
:1001700080B483B000AF0346FB80FB88802B42D065
:10018000802B11DC082B36D0082B06DC022B2ED05E
:10019000042B2ED0012B28D047E0202B2FD0402B32
:1001A0002FD0102B29D040E0B3F5006F33D0B3F53A
:1001B000006F09DCB3F5007F29D0B3F5806F28D03C
:1001C000B3F5807F21D030E0B3F5005F27D0B3F5E1
:1001D000005F03DCB3F5805F1FD026E0B3F5804FEE
:1001E0001FD0B3F5004F1ED01FE000231EE00423F4
:1001F0001CE008231AE00C2318E0102316E0142357
:1002000014E0182312E01C2310E000230EE0042366
:100210000CE008230AE00C2308E0102306E0142376
:1002200004E0182302E01C2300E0002318460C37EA
:10023000BD4680BC704790B585B000AF786039602E
:100240000023BB600023FB733B681B88FF2B01D896
:100250007B6801E07B680433BB603B681B88184601
:10026000FFF786FF03461A460F239340DA43BB6825
:100270001B681A40BB681A603B685B88042B0BD074
:100280003B685B88052B07D03B685B88062B03D057
:100290003B685B88072B0ED13B685B88043B9B0067
:1002A0005AB23B689B885BB213435BB2DBB203F08C
:1002B0000F03FB732DE03B685B88012B03D03B6889
:1002C0005B88002B08D13B685B88043B9B00DBB25A
:1002D00003F00F03FB731CE03B685B88082B02D123
:1002E0000423FB7315E00823FB733B685B88022B38
:1002F00007D17B68DB683A6812881A437B68DA604A
:1003000007E07B68DB683A681288D2431A407B6852
:10031000DA60FC7B3B681B881846FFF729FF034621
:1003200004FA03F2BB681B681A43BB681A6000BF7B
:100330001437BD4690BD80B483B000AF78600B46E3
:100340007B807B68DA687B885A407B68DA6000BF14
:100350000C37BD4680BC704780B400AF064B064AE0
:100360001B681360044B5B68034A43F0010353604E
:1003700000BFBD4680BC70470010024080B483B00F
:1003800000AF03460A46FB711346BB80FB79012B85
:100390000FD0022B18D0002B00D020E0124B5B694D
:1003A000BA88012101FA02F211460F4A0B43536148
:1003B00015E00D4B9B69BA88012101FA02F2114642
:1003C000094A0B4393610AE0074BDB69BA880121B4
:1003D00001FA02F21146044A0B43D36100BF00BF89
:1003E0000C37BD4680BC70470010024080B500AF9E
:1003F000FFF7B2FF02210120FFF7C0FF00BF80BD61
:1004000080B582B000AF04233B8004237B800223AD
:10041000BB803B4619460348FFF70DFF00BF083776
:10042000BD4680BD0008014080B582B000AFFFF737
:10043000DDFFFFF7E5FF04210648FFF77CFF064BD1
:100440007B6000E000BF7B685A1E7A60002BF9D108
:10045000F1E700BF0008014020A107000D488546D4
:10046000AFF300800C480D490D4A002302E0D45838
:10047000C4500433C4188C42F9D30A4A0A4C0023EE
:1004800001E013600432A242FBD300F011F8FFF741
:10049000CBFFFEE7005000200000002000000020FD
:1004A00018050008000000201C000020FEE70000E6
:1004B00070B500250C4E0D4CA41BA410A54209D10B
:1004C00000F01AF800250A4E0A4CA41BA410A542FD
:1004D00005D170BD56F8253098470135EEE756F83E
:1004E000253098470135F2E710050008100500088F
:1004F0001005000814050008F8B500BFF8BC08BCDA
:100500009E467047F8B500BFF8BC08BC9E467047D1
:040510005501000889
:0405140031010008A9
:040000050800045D8E
:00000001FF
