S00F0000447269766572732E7372656336
S11300000C942A000C943F000C943F000C943F0085
S11300100C943F000C943F000C943F000C943F0060
S11300200C943F000C943F000C943F000C943F0050
S11300300C943F000C943F000C943F000C943F0040
S11300400C943F000C943F000C943F000C943F0030
S11300500C943F0011241FBECFE5D8E0DEBFCDBF16
S113006010E0A0E6B0E0EEE8F5E002C005900D92E5
S1130070A037B107D9F70E94B5020C94C5020C94BD
S11300800000813041F028F0823039F0833039F0BB
S113009008956ABB089567BB089564BB089561BB66
S11300A008954423A1F1813089F028F08230C9F009
S11300B0833011F108952AB381E090E002C0880FE3
S11300C0991F6A95E2F7822B8ABB089527B381E0D2
S11300D090E002C0880F991F6A95E2F7822B87BBD4
S11300E0089524B381E090E002C0880F991F6A95B7
S11300F0E2F7822B84BB089521B381E090E002C033
S1130100880F991F6A95E2F7822B81BB089581308D
S113011091F028F08230D9F0833029F108952AB380
S113012081E090E002C0880F991F6A95E2F78095FC
S113013082238ABB089527B381E090E002C0880F30
S1130140991F6A95E2F78095822387BB089524B3AB
S113015081E090E002C0880F991F6A95E2F78095CC
S1130160822384BB089521B381E090E002C0880F0C
S1130170991F6A95E2F78095822381BB08954423F1
S1130180A1F1813089F028F08230C9F0833011F177
S113019008952BB381E090E002C0880F991F6A95FF
S11301A0E2F7822B8BBB089528B381E090E002C074
S11301B0880F991F6A95E2F7822B88BB089525B3AF
S11301C081E090E002C0880F991F6A95E2F7822BC4
S11301D085BB089522B381E090E002C0880F991F87
S11301E06A95E2F7822B82BB0895813091F028F062
S11301F08230D9F0833029F108952BB381E090E067
S113020002C0880F991F6A95E2F7809582238BBB01
S1130210089528B381E090E002C0880F991F6A9581
S1130220E2F78095822388BB089525B381E090E0AE
S113023002C0880F991F6A95E2F78095822385BBD7
S1130240089522B381E090E002C0880F991F6A9557
S1130250E2F78095822382BB0895813079F028F0FB
S11302608230A9F08330E1F024C08BB390E002C067
S1130270959587956A95E2F78170089588B390E023
S113028002C0959587956A95E2F78170089585B3C4
S113029090E002C0959587956A95E2F7817008957C
S11302A082B390E002C0959587956A95E2F78170D4
S11302B0089580E0089541E067E083E00E945100E2
S11302C041E066E083E00E94510041E065E083E0A4
S11302D00E94510041E063E083E00E94510040E04D
S11302E065E082E00E94510040E064E082E00E9408
S11302F0510040E063E082E00E94510040E062E08F
S113030082E00E94510041E067E083E00E94BF0068
S113031041E066E083E00E94BF0041E065E083E0E5
S11303200E94BF0041E063E083E00E94BF000895A3
S11303301F93CF93DF9310E0D0E02FC040E06D2FE8
S113034083E00E94BF00C4E020C06C2F82E00E94C2
S11303502D01811119C0EC2FF0E03497EE0FFF1F2F
S1130360EE0FFF1FE05AFF4FED0FF11D108104C087
S11303706C2F82E00E942D018823D1F38FE39CE946
S11303800197F1F700C00000CF5FC830F0F241E000
S11303906D2F83E00E94BF00DF5FD43078F2812F9D
S11303A0DF91CF911F910895CF93C82F40E063E070
S11303B080E00E94BF0040E062E080E00E94BF0055
S11303C088B39C2F92959F709770887F892B88BBE8
S11303D0CC2324F488B3806188BB03C088B38F7EA8
S11303E088BB40E063E080E00E94BF0041E062E03F
S11303F080E00E94BF002FEF80E792E02150804010
S11304009040E1F700C0000040E062E080E00E941C
S1130410BF0088B39C2F9770887F892B88BBC3FF4C
S113042004C088B3806188BB03C088B38F7E88BB57
S113043040E063E080E00E94BF0041E062E080E0D1
S11304400E94BF002FEF80E792E02150804090404F
S1130450E1F700C0000040E062E080E00E94BF00DD
S1130460CF910895CF93C82F41E063E080E00E94CC
S1130470BF0040E062E080E00E94BF0088B39C2F90
S113048092959F709770887F892B88BBCC2324F426
S113049088B3806188BB03C088B38F7E88BB41E08A
S11304A062E080E00E94BF002FEF80E792E02150DD
S11304B080409040E1F700C0000040E062E080E04E
S11304C00E94BF0088B39C2F9770887F892B88BBBC
S11304D0C3FF04C088B3806188BB03C088B38F7E28
S11304E088BB41E062E080E00E94BF002FEF80E71C
S11304F092E0215080409040E1F700C0000040E0CD
S113050062E080E00E94BF00CF91089581E00E94E4
S1130510D401089541E063E080E00E94510041E08D
S113052061E080E00E94510041E062E080E00E94CE
S113053051006FEF81E00E9441002FEF89EF90E0BE
S1130540215080409040E1F700C0000088E20E9402
S1130550D40186E00E94D40180E80E94D4018FE097
S11305600E94D4010E94860208950E948A020E9479
S11305705B010E9486020E9498018F3319F40E9445
S11105808602F9CF0E943202F6CFF894FFCF24
S113058E3132333435363738394142434445463FA8
S9030000FC
