S0110000415652202D205350492E73726563D1
S11300000C942A000C943C000C943C000C943C008E
S11300100C943C000C943C000C943C000C943C006C
S11300200C943C000C943C000C943C000C943C005C
S11300300C945D010C943C000C943C000C943C002A
S11300400C943C000C943C000C943C000C943C003C
S11300500C943C0011241FBECFE5D8E0DEBFCDBF19
S113006020E0A0E6B0E001C01D92A336B207E1F79C
S11300700E943E000C9486010C9400000E945201E0
S113008041E065E080E00E94760041E066E080E0C7
S11300900E94760041E065E081E00E94760040E045
S11300A066E081E00E94760041E067E081E00E9422
S11300B0760088E50E94580180936000883559F4E1
S11300C040E066E080E00E94E40041E065E080E01A
S11300D00E94E400EECF40E065E080E00E94E4008E
S11300E041E066E080E00E94E400E3CF4423A1F114
S11300F0813089F028F08230C9F0833011F10895FD
S11301002AB381E090E002C0880F991F6A95E2F754
S1130110822B8ABB089527B381E090E002C0880F48
S1130120991F6A95E2F7822B87BB089524B381E077
S113013090E002C0880F991F6A95E2F7822B84BB76
S1130140089521B381E090E002C0880F991F6A9559
S1130150E2F7822B81BB0895813091F028F0823040
S1130160D9F0833029F108952AB381E090E002C0E8
S1130170880F991F6A95E2F7809582238ABB0895B8
S113018027B381E090E002C0880F991F6A95E2F7D7
S11301908095822387BB089524B381E090E002C058
S11301A0880F991F6A95E2F78095822384BB08958E
S11301B021B381E090E002C0880F991F6A95E2F7AD
S11301C08095822381BB08954423A1F1813089F075
S11301D028F08230C9F0833011F108952BB381E007
S11301E090E002C0880F991F6A95E2F7822B8BBBBF
S11301F0089528B381E090E002C0880F991F6A95A2
S1130200E2F7822B88BB089525B381E090E002C019
S1130210880F991F6A95E2F7822B85BB089522B354
S113022081E090E002C0880F991F6A95E2F7822B63
S113023082BB0895813091F028F08230D9F0833068
S113024029F108952BB381E090E002C0880F991F33
S11302506A95E2F7809582238BBB089528B381E0E9
S113026090E002C0880F991F6A95E2F78095822377
S113027088BB089525B381E090E002C0880F991FE0
S11302806A95E2F78095822385BB089522B381E0C5
S113029090E002C0880F991F6A95E2F78095822347
S11302A082BB08958EB18E7F8EB981EF8DB908958A
S11302B08FB9779BFECF8FB108951F920F920FB61F
S11302C00F9211242F933F934F935F936F937F93D8
S11302D08F939F93AF93BF93EF93FF93E09161004C
S11302E0F0916200309709F00995FF91EF91BF9169
S11302F0AF919F918F917F916F915F914F913F91BA
S11303002F910F900FBE0F901F901895F894FFCF68
S9030000FC
