:100000000C942A000C9447000C9447000C94470071
:100010000C9447000C9447000C9447000C94470044
:100020000C9447000C9447000C9447000C94470034
:100030000C9447000C9447000C9447000C94470024
:100040000C9436020C9447000C9447000C94470023
:100050000C94470011241FBECFE5D8E0DEBFCDBF12
:1000600010E0A0E6B0E0E0E0F7E002C005900D92FD
:10007000A037B107D9F720E0A0E7B0E001C01D929A
:10008000AC38B207E1F70E947F010C947E030C9418
:100090000000CF93C82F40E063E080E00E94DB02C5
:1000A00040E062E080E00E94DB0288B39C2F9295E2
:1000B0009F709770887F892B88BBCC2324F488B3EA
:1000C000806188BB03C088B38F7E88BB40E063E05B
:1000D00080E00E94DB0241E062E080E00E94DB02FF
:1000E0008FE19EE40197F1F700C0000040E062E07C
:1000F00080E00E94DB0288B39C2F9770887F892B59
:1001000088BBC3FF04C088B3806188BB03C088B3C9
:100110008F7E88BB40E063E080E00E94DB0241E02C
:1001200062E080E00E94DB028FE19EE40197F1F73C
:1001300000C0000040E062E080E00E94DB02CF915E
:100140000895CF93DF93C82FD62F813031F46431D7
:1001500020F480E8860F0E944900C23031F4D43187
:1001600020F480EC8D0F0E944900DF91CF9108951B
:10017000CF93C82F41E063E080E00E94DB0240E0C3
:1001800062E080E00E94DB0288B39C2F92959F7012
:100190009770887F892B88BBCC2324F488B3806137
:1001A00088BB03C088B38F7E88BB41E062E080E0FB
:1001B0000E94DB028FE19EE40197F1F700C000008E
:1001C00040E062E080E00E94DB0288B39C2F9770E1
:1001D000887F892B88BBC3FF04C088B3806188BB3C
:1001E00003C088B38F7E88BB41E062E080E00E945C
:1001F000DB028FE19EE40197F1F700C0000040E0D0
:1002000062E080E00E94DB02CF91089581E00E94CD
:100210004900089541E063E080E00E946D0241E002
:1002200061E080E00E946D0241E062E080E00E94B7
:100230006D026FEF81E00E945D028FE19EE4019705
:10024000F1F700C0000088E20E94490086E00E94A9
:10025000490080E80E9449008FE00E9449000E9406
:10026000060108950F931F93CF93DF938C01C0E095
:10027000D0E018C021960F5F1F4F0E94B800C43114
:10028000D10529F460E082E00E94A1000BC0C832D1
:10029000D10541F40E94060160E081E00E94A100C6
:1002A000C0E0D0E0F80180818111E4CFDF91CF91EF
:1002B0001F910F91089580917C0081110CC024B191
:1002C00085B1837090E0982F8827822B90938200CD
:1002D0008093810010C024B1229526952695237025
:1002E00085B190E0880F991F880F991F822B9093FA
:1002F00082008093810086B18F7E86B90895CF9366
:10030000DF93CDB7DEB727970FB6F894DEBF0FBEE9
:10031000CDBF198287E08C831B8280E48A8388E0CA
:100320008D838BE591E09F838E83CE0101960E94A1
:10033000C70140E060E080E00E946D020E940A0177
:100340000E94060141E061E870E081E00E94F60150
:1003500080916000909161000E9432014AE060E764
:1003600070E080918100909182000E94490380E7B3
:1003700090E00E9432012FEF83ED90E32150804006
:100380009040E1F700C000000E940601DBCFCF9350
:10039000DF93EC0187E0FE01A3E8B0E001900D924D
:1003A0008A95E1F796B18881892B86B997B18981C1
:1003B000892B87B997B18A81892B87B996B18B81AF
:1003C000892B86B996B18C81892B86B98C8188302E
:1003D00009F4789486B1806886B98881803419F4EC
:1003E00086B1806486B9DF91CF91089597B1907EF0
:1003F00097B997B1982B97B95AB321E030E0F9013A
:1004000002C0EE0FFF1F8A95E2F7CF01809585238A
:100410008ABB80918300811103C086B1806486B954
:10042000411102C0349BFECF8091850081110BC029
:1004300024B185B1837090E0982F8827822BFB012F
:10044000918380830FC024B1229526952695237031
:1004500085B190E0880F991F880F991F822BFB01AF
:100460009183808386B18F7E86B908951F920F9203
:100470000FB60F9211242F933F934F935F936F9377
:100480007F938F939F93AF93BF93EF93FF93E091ED
:100490008800F09189000995FF91EF91BF91AF918C
:1004A0009F918F917F916F915F914F913F912F918C
:1004B0000F900FBE0F901F901895813041F028F0DB
:1004C000823039F0833039F008956ABB089567BBF4
:1004D000089564BB089561BB08954423A1F1813060
:1004E00089F028F08230C9F0833011F108952AB3E1
:1004F00081E090E002C0880F991F6A95E2F7822B95
:100500008ABB089527B381E090E002C0880F991F4D
:100510006A95E2F7822B87BB089524B381E090E0CF
:1005200002C0880F991F6A95E2F7822B84BB089559
:1005300021B381E090E002C0880F991F6A95E2F72D
:10054000822B81BB0895813091F028F08230D9F060
:10055000833029F108952AB381E090E002C0880F2A
:10056000991F6A95E2F7809582238ABB089527B385
:1005700081E090E002C0880F991F6A95E2F78095AC
:10058000822387BB089524B381E090E002C0880FE6
:10059000991F6A95E2F78095822384BB089521B361
:1005A00081E090E002C0880F991F6A95E2F780957C
:1005B000822381BB08954423A1F1813089F028F082
:1005C0008230C9F0833011F108952BB381E090E0BF
:1005D00002C0880F991F6A95E2F7822B8BBB0895A2
:1005E00028B381E090E002C0880F991F6A95E2F776
:1005F000822B88BB089525B381E090E002C0880F6C
:10060000991F6A95E2F7822B85BB089522B381E09A
:1006100090E002C0880F991F6A95E2F7822B82BB97
:100620000895813091F028F08230D9F0833029F19B
:1006300008952BB381E090E002C0880F991F6A955E
:10064000E2F7809582238BBB089528B381E090E088
:1006500002C0880F991F6A95E2F78095822388BBB4
:10066000089525B381E090E002C0880F991F6A9534
:10067000E2F78095822385BB089522B381E090E064
:1006800002C0880F991F6A95E2F78095822382BB8A
:100690000895BB274A3031F4992322F4BDE29095A6
:1006A00081959F4F0C945503BB27FB015527AA2723
:1006B000880F991FAA1FA41710F0A41B83955051EF
:1006C000B9F7A05DAA3308F0A95DA193009779F767
:1006D000B111B1931192CB010C946E03DC01FC01BA
:1006E000672F71917723E1F7329704C07C916D9366
:1006F00070836291AE17BF07C8F30895F894FFCFD7
:1007000062004144432056616C7565203D20000025
:00000001FF
