:100000000C942A000C9447000C9447000C94470071
:100010000C9447000C9447000C9447000C94470044
:100020000C9447000C9447000C9447000C94470034
:100030000C9447000C9447000C9447000C94470024
:100040000C9439050C9447000C9447000C9447001D
:100050000C94470011241FBECFE5D8E0DEBFCDBF12
:1000600011E0A0E6B0E0E6E0FEE002C005900D92EF
:10007000A630B107D9F721E0A6E0B1E001C01D929A
:10008000AF30B207E1F70E94A4040C9401070C946E
:100090000000CF93C82F40E063E080E00E94CD05D0
:1000A00089EF90E00197F1F700C0000041E062E0C5
:1000B00080E00E94CD0589EF90E00197F1F700C044
:1000C00000004C2F407150E0559547955595479548
:1000D000559547955595479560E081E00E94CD057F
:1000E0004C2F407250E0559547955595479555953D
:1000F0004795559547955595479561E081E00E9454
:10010000CD054C2F407450E0042E452F000C441FA9
:10011000550B000C441F551F62E081E00E94CD0585
:100120004C2F441F4427441F64E081E00E94CD050A
:1001300040E062E080E00E94CD0541E062E080E0C6
:100140000E94CD0589EF90E00197F1F700C0000013
:100150004C2F417060E081E00E94CD054C2F427031
:1001600050E05595479561E081E00E94CD054C2F08
:10017000447050E0559547955595479562E081E06C
:100180000E94CD05C8704C2F50E055954795559568
:1001900047955595479564E081E00E94CD0540E084
:1001A00062E080E00E94CD05CF91089541E063E0D8
:1001B00080E00E94600541E062E080E00E9460050E
:1001C00087E893E10197F1F700C0000041E060E0AB
:1001D00081E00E94600541E061E081E00E946005ED
:1001E00041E062E081E00E94600541E064E081E07E
:1001F0000E94600583E30E94490082E30E94490057
:1002000088E20E9449008CE00E94490081E00E943F
:1002100049008FE00E9449000895CF93C82F41E024
:1002200063E080E00E94CD0589EF90E00197F1F74F
:1002300000C0000041E062E080E00E94CD0589EF4F
:1002400090E00197F1F700C000004C2F407150E0A2
:100250005595479555954795559547955595479586
:1002600060E081E00E94CD054C2F407250E0559532
:100270004795559547955595479555954795559566
:10028000479561E081E00E94CD054C2F407450E01D
:10029000042E452F000C441F550B000C441F551F06
:1002A00062E081E00E94CD054C2F441F4427441F8B
:1002B00064E081E00E94CD0540E062E080E00E94C1
:1002C000CD0541E062E080E00E94CD0589EF90E03D
:1002D0000197F1F700C000004C2F417060E081E011
:1002E0000E94CD054C2F427050E05595479561E036
:1002F00081E00E94CD054C2F447050E05595479504
:100300005595479562E081E00E94CD05C8704C2F5D
:1003100050E055954795559547955595479564E017
:1003200081E00E94CD0540E062E080E00E94CD05C2
:10033000CF9108950F931F93CF938C01C0E003C01A
:100340000E940D01CF5FF801EC0FF11D808181113A
:10035000F7CFCF911F910F910895CF93DF93CDB732
:10036000DEB760970FB6F894DEBF0FBECDBF2AE0B0
:1003700030E0AE014F5F5F4F0E94B506CE0101969F
:100380000E949A0160960FB6F894DEBF0FBECDBFF3
:10039000DF91CF91089581E00E9449000895613076
:1003A00071058105910551F424313105410551054F
:1003B00088F580E8820F0E94490008956230710537
:1003C0008105910551F4243131054105510510F5A0
:1003D00080EC820F0E944900089563307105810509
:1003E000910551F4243131054105510598F484E912
:1003F000820F0E94490008956430710581059105BE
:1004000049F4243131054105510520F484ED820F72
:100410000E9449000895CF93DF93CDB7DEB72797A9
:100420000FB6F894DEBF0FBECDBF198287E08C8374
:100430001B8280E48A831D821F821E82CE01019668
:100440000E94CA0440E060E080E00E9460052796B8
:100450000FB6F894DEBF0FBECDBFDF91CF910895E8
:10046000CF93DF9300D0CDB7DEB740E0BE016F5F22
:100470007F4F81E00E94F90489810F900F90DF91F6
:10048000CF910895813061F028F0823079F0833087
:1004900099F0089540E067E083E00E9460050895C8
:1004A00040E066E083E00E946005089540E065E07A
:1004B00083E00E946005089540E063E083E00E94CD
:1004C00060050895CF93DF931F92CDB7DEB791E01B
:1004D0009983813071F028F0823099F08330C9F02F
:1004E0001FC0AE014F5F5F4F67E083E00E943A0696
:1004F00017C0AE014F5F5F4F66E083E00E943A068F
:100500000FC0AE014F5F5F4F65E083E00E943A0687
:1005100007C0AE014F5F5F4F63E083E00E943A0681
:1005200089810F90DF91CF9108950E94CB012FEF29
:1005300081EE94E0215080409040E1F700C000003F
:1005400022E030E040E050E061E070E080E090E0E8
:100550000E94CF0181E690E00E949A0120E030E005
:10056000A90163E070E080E090E00E94CF0182E7A3
:1005700090E00E949A0120E030E0A90164E070E080
:1005800080E090E00E94CF0185E890E00E949A010F
:1005900080E00E946202811107C080E00E94620236
:1005A0008823D9F380E523C081E00E946202811193
:1005B00007C081E00E9462028823D9F38AE517C050
:1005C00082E00E946202811107C082E00E94620202
:1005D0008823D9F388E70BC083E00E94620281116F
:1005E000D7CF83E00E9462028823D9F3089591E077
:1005F000909306010E94B0060E94CB0108950F93CC
:100600001F93CF93DF93EC01162F042F80910601E7
:10061000813039F480E00E94B0068093600010922F
:1006200006010E943002888390910701981718F400
:10063000891B888305C00E943002809307011882BD
:10064000988180916000891710F40111888311301E
:1006500029F488818F3110F08EE1888321E130E028
:1006600040E050E061E070E080E090E00E94CF0167
:100670006091600070E080E090E00E94AD0180E257
:100680000E940D018FE39CE90197F1F700C0000083
:10069000DF91CF911F910F910895CF93DF93EC01DC
:1006A00083E00E94620281110BC083E00E9462021B
:1006B0008823D9F38881833098F48F5F888310C0B2
:1006C00082E00E94620281110BC082E00E946202FD
:1006D0008823D9F388819FEF980F933008F498838B
:1006E000DF91CF910895CF93DF93EB0181E00E94DA
:1006F0006202811108C081E00E9462028823D9F35E
:100700000E94950211C080E00E94620281110CC01B
:1007100080E00E9462028823D9F38881811103C09E
:1007200081E0888301C01882DF91CF910895CF9333
:10073000DF9300D01F92CDB7DEB719821A821B82D9
:100740000E943002809307014B816A81CE0101969D
:100750000E94FF02CE0102960E944D038A818130E1
:1007600079F138F0823009F453C0833009F477C04E
:100770009DC020E030E0A90162E070E080E090E000
:100780000E94CF018AE990E00E949A0160E070E047
:10079000CB010E94AD0180E20E940D0180E20E9427
:1007A0000D012DE030E040E050E062E070E080E0DC
:1007B00090E00E94CF0181EA90E00E949A0176C009
:1007C00020E030E0A90162E070E080E090E00E946B
:1007D000CF018AE990E00E949A01698170E080E08F
:1007E00090E00E94AD0180E20E940D0180E20E9433
:1007F0000D012DE030E040E050E062E070E080E08C
:1008000090E00E94CF0189EA90E00E949A014EC0D8
:1008100020E030E0A90162E070E080E090E00E941A
:10082000CF018AE990E00E949A0160E070E0CB017C
:100830000E94AD0180E20E940D0180E20E940D0144
:100840002DE030E040E050E062E070E080E090E0D9
:100850000E94CF0181EB90E00E949A0127C020E026
:1008600030E0A90162E070E080E090E00E94CF01FA
:100870008AE990E00E949A01698170E080E090E04E
:100880000E94AD0180E20E940D0180E20E940D01F4
:100890002DE030E040E050E062E070E080E090E089
:1008A0000E94CF0189EB90E00E949A0120E030E0A5
:1008B000A90161E070E080E090E00E94CF0181EC4E
:1008C00090E00E949A018B81811105C084EE90E036
:1008D0000E949A0104C08FEC90E00E949A0120E0EF
:1008E00030E0A90163E070E080E090E00E94CF0179
:1008F00083ED90E00E949A0120E030E0A90164E0DD
:1009000070E080E090E00E94CF0188EE90E00E94CD
:100910009A01BE016D5F7F4F80E690E00E947303F5
:1009200013CF0E94D6000E940B020E949B0683E018
:100930000E94420282E00E94420281E00E94420242
:1009400080E00E94420208950E9491042FEF89E600
:1009500098E1215080409040E1F700C0000024E081
:1009600030E040E050E062E070E080E090E00E9423
:10097000CF018AEF90E00E949A012FEF83E294EF7B
:10098000215080409040E1F700C000000E94CB0160
:100990000E949703CF93DF93EC0187E0FE01A8E06C
:1009A000B1E001900D928A95E1F796B18881892B8B
:1009B00086B997B18981892B87B997B18A81892BAB
:1009C00087B996B18B81892B86B996B18C81892B99
:1009D00086B98C81883009F4789486B1806886B9AC
:1009E0008881803419F486B1806486B9DF91CF9113
:1009F000089597B1907E97B997B1982B97B95AB34C
:100A000021E030E0F90102C0EE0FFF1F8A95E2F706
:100A1000CF01809585238ABB80910801811103C095
:100A200086B1806486B9411102C0349BFECF8091AB
:100A30000A0181110BC024B185B1837090E0982F19
:100A40008827822BFB01918380830FC024B12295DC
:100A500026952695237085B190E0880F991F880F01
:100A6000991F822BFB019183808386B18F7E86B98B
:100A700008951F920F920FB60F9211242F933F9358
:100A80004F935F936F937F938F939F93AF93BF9396
:100A9000EF93FF93E0910D01F0910E010995FF9105
:100AA000EF91BF91AF919F918F917F916F915F91E6
:100AB0004F913F912F910F900FBE0F901F9018955F
:100AC000813001F130F08230B1F1833009F44CC053
:100AD0000895413059F42AB381E090E002C0880FB4
:100AE000991F6A95E2F7822B8ABB08952AB381E0A9
:100AF00090E002C0880F991F6A95E2F780958223E3
:100B00008ABB0895413059F427B381E090E002C0D8
:100B1000880F991F6A95E2F7822B87BB089527B348
:100B200081E090E002C0880F991F6A95E2F78095F6
:100B3000822387BB0895413059F424B381E090E0CB
:100B400002C0880F991F6A95E2F7822B84BB089533
:100B500024B381E090E002C0880F991F6A95E2F704
:100B60008095822384BB0895413059F421B381E0FC
:100B700090E002C0880F991F6A95E2F7822B81BB33
:100B8000089521B381E090E002C0880F991F6A9513
:100B9000E2F78095822381BB0895813001F130F026
:100BA0008230B1F1833009F44CC00895413059F4DA
:100BB0002BB381E090E002C0880F991F6A95E2F79D
:100BC000822B8BBB08952BB381E090E002C0880F8D
:100BD000991F6A95E2F7809582238BBB0895413077
:100BE00059F428B381E090E002C0880F991F6A95FC
:100BF000E2F7822B88BB089528B381E090E002C021
:100C0000880F991F6A95E2F78095822388BB089523
:100C1000413059F425B381E090E002C0880F991F5C
:100C20006A95E2F7822B85BB089525B381E090E0B9
:100C300002C0880F991F6A95E2F78095822385BBD1
:100C40000895413059F422B381E090E002C0880F4A
:100C5000991F6A95E2F7822B82BB089522B381E047
:100C600090E002C0880F991F6A95E2F78095822371
:100C700082BB08958130E9F030F0823081F1833019
:100C800009F443C0089579B381E090E09C01062EF9
:100C900002C0220F331F0A94E2F7872F90E08223CD
:100CA000932302C0959587956A95E2F7FA018083B0
:100CB000089576B381E090E09C01062E02C0220FD9
:100CC000331F0A94E2F7872F90E08223932302C018
:100CD000959587956A95E2F7FA018083089573B335
:100CE00081E090E09C01062E02C0220F331F0A947F
:100CF000E2F7872F90E08223932302C09595879592
:100D00006A95E2F7FA018083089570B381E090E07C
:100D10009C01062E02C0220F331F0A94E2F7872F90
:100D200090E08223932302C0959587956A95E2F718
:100D3000FA018083089541E065E081E00E9460054A
:100D400040E066E081E00E94600541E067E081E00C
:100D50000E94600580E58DB98EB18E7F8EB90895B1
:100D60008FB9779BFECF8FB108952532310520F4DE
:100D7000223010F00C94C006FA011082CA010895C6
:100D8000BB272A3051F4992342F4BDE29095809517
:100D9000709561957F4F8F4F9F4F0C94D006BB2766
:100DA000FA01A62F6217710581059105330B30FBFF
:100DB00066F0AA27660F771F881F991FAA1FA21720
:100DC00010F0A21B63953850A9F7A05DAA3308F074
:100DD000A95DA19336F7B111B1931082CA010C94A9
:100DE000F106DC01FC01672F71917723E1F732975F
:100DF00004C07C916D9370836291AE17BF07C8F3F6
:060E00000895F894FFCFF5
:100E0600FA43484F4F5345205448452053504545D3
:100E16004400312920383020202020202020203274
:100E2600292039300033292031323020202020205B
:100E360020203429206261636B0073706565643A13
:100E4600006765617228502900676561722852291A
:100E56000067656172284E2900676561722844291A
:100E6600007370656564206C696D69743A20004F83
:100E76004E200031207370656564204C696D69747D
:100E8600204F4E2F4F4646003220736574207370F4
:100E9600656564206C696D697400414C5048412059
:060EA60054454348000022
:00000001FF
