:100000000C942A000C9447000C9447000C94470071
:100010000C9447000C9447000C9447000C94470044
:100020000C9447000C9447000C9435010C942B0160
:100030000C9447000C9447000C9447000C94470024
:100040000C9463000C9447000C9447000C944700F8
:100050000C94470011241FBECFE5D8E0DEBFCDBF12
:1000600010E0A0E6B0E0ECEBF2E002C005900D92EB
:10007000A036B107D9F720E0A0E6B0E001C01D929C
:10008000A737B207E1F70E944A000C945C010C9478
:100090000000089541E063E081E00E948A00E2E60A
:1000A000F0E088E0808383E0818382E082831382B2
:1000B00089E490E095838483CF010E94F8008EE369
:1000C0000E942901FFCF1F920F920FB60F921124A9
:1000D0002F933F934F935F936F937F938F939F9350
:1000E000AF93BF93EF93FF93E0916D00F0916E009B
:1000F0000995FF91EF91BF91AF919F918F917F9162
:100100006F915F914F913F912F910F900FBE0F9084
:100110001F9018954423A1F1813089F028F0823096
:10012000C9F0833011F108952AB381E090E002C054
:10013000880F991F6A95E2F7822B8ABB089527B32F
:1001400081E090E002C0880F991F6A95E2F7822B48
:1001500087BB089524B381E090E002C0880F991F07
:100160006A95E2F7822B84BB089521B381E090E089
:1001700002C0880F991F6A95E2F7822B81BB089510
:10018000813091F028F08230D9F0833029F1089540
:100190002AB381E090E002C0880F991F6A95E2F7C8
:1001A000809582238ABB089527B381E090E002C046
:1001B000880F991F6A95E2F78095822387BB08957F
:1001C00024B381E090E002C0880F991F6A95E2F79E
:1001D0008095822384BB089521B381E090E002C022
:1001E000880F991F6A95E2F78095822381BB089555
:1001F000CF93DF93EC0186E0FE01A1E7B0E0019030
:100200000D928A95E1F793B78881892B83BF888106
:10021000883029F0882319F08CB788608CBF93B799
:100220008981892B83BF99B78A81892B89BF8A816C
:10023000882309F078948B8182BF8C819D81909373
:1002400061008093600083B7806183BFDF91CF91AD
:1002500008958CBF08951F920F920FB60F9211242C
:100260000F900FBE0F901F9018951F920F920FB610
:100270000F9211242F933F934F935F936F937F932C
:100280008F939F93AF93BF93EF93FF93E0916000A1
:10029000F09161000995FF91EF91BF91AF919F910E
:1002A0008F917F916F915F914F913F912F910F901F
:0C02B0000FBE0F901F901895F894FFCF20
:00000001FF
