S0150000415652202D20447269766572732E73726563DA
S11300000C942A000C9447000C9447000C9447006D
S11300100C9447000C9447000C9447000C94470040
S11300200C9447000C9447000C9447000C9426034E
S11300300C9447000C9447000C9447000C94470020
S11300400C94E1010C9447000C9447000C94470075
S11300500C94470011241FBECFE5D8E0DEBFCDBF0E
S113006010E0A0E6B0E0E8E0F7E002C005900D92F1
S1130070A036B107D9F720E0A0E6B0E001C01D9298
S1130080A838B207E1F70E94A2010C9482030C94F1
S11300900000CF93C82F40E063E080E00E94860216
S11300A040E062E080E00E94860288B39C2F929533
S11300B09F709770887F892B88BBCC2324F488B3E6
S11300C0806188BB03C088B38F7E88BB40E063E057
S11300D080E00E94860241E062E080E00E948602A5
S11300E08FE19EE40197F1F700C0000040E062E078
S11300F080E00E94860288B39C2F9770887F892BAA
S113010088BBC3FF04C088B3806188BB03C088B3C5
S11301108F7E88BB40E063E080E00E94860241E07D
S113012062E080E00E9486028FE19EE40197F1F78D
S113013000C0000040E062E080E00E948602CF91AF
S11301400895CF93DF93C82FD62F813031F46431D3
S113015020F480E8860F0E944900C23031F4D43183
S113016020F480EC8D0F0E944900DF91CF91089517
S1130170CF93C82F41E063E080E00E94860240E014
S113018062E080E00E94860288B39C2F92959F7063
S11301909770887F892B88BBCC2324F488B3806133
S11301A088BB03C088B38F7E88BB41E062E080E0F7
S11301B00E9486028FE19EE40197F1F700C00000DF
S11301C040E062E080E00E94860288B39C2F977032
S11301D0887F892B88BBC3FF04C088B3806188BB38
S11301E003C088B38F7E88BB41E062E080E00E9458
S11301F086028FE19EE40197F1F700C0000040E021
S113020062E080E00E948602CF91089581E00E941E
S11302104900089541E063E080E00E94180241E053
S113022061E080E00E94180241E062E080E00E9408
S113023018026FEF81E00E9408028FE19EE40197AB
S1130240F1F700C0000088E20E94490086E00E94A5
S1130250490080E80E9449008FE00E9449000E9402
S1130260060108950F931F93CF93DF938C01C0E091
S1130270D0E018C021960F5F1F4F0E94B800C43110
S1130280D10529F460E082E00E94A1000BC0C832CD
S1130290D10541F40E94060160E081E00E94A100C2
S11302A0C0E0D0E0F80180818111E4CFDF91CF91EB
S11302B01F910F9108958091630090916400A09123
S11302C06500B09166008A3F9105A105B10558F417
S11302D00196A11DB11D8093630090936400A093C7
S11302E06500B09366008091630090916400A091D2
S11302F06500B09166008A3F9105A105B10569F4D6
S1130300809162008F5F809362001092630010926C
S113031064001092650010926600809162008A3039
S113032039F410926200809161008F5F80936100C4
S113033080916100863029F4809160008F5F809302
S1130340600008950E940A010E94060141E067E0EE
S113035081E00E941802E3E7F0E0108284E08183E8
S113036081E0828386E083838BE591E095838483B7
S1130370CF010E94F4028091600081110E94220347
S1130380809162004AE069E670E090E00E944D03CB
S113039089E690E00E94320160E070E082E090E043
S11303A00E94A100809161004AE069E670E090E05B
S11303B00E944D0389E690E00E9432010E940601EA
S11303C0DACF1F920F920FB60F9211242F933F93FF
S11303D04F935F936F937F938F939F93AF93BF9349
S11303E0EF93FF93E0917E00F0917F000995FF91D8
S11303F0EF91BF91AF919F918F917F916F915F9199
S11304004F913F912F910F900FBE0F901F90189511
S1130410813041F028F0823039F0833039F008958A
S11304206ABB089567BB089564BB089561BB0895D2
S11304304423A1F1813089F028F08230C9F083305F
S113044011F108952AB381E090E002C0880F991F4A
S11304506A95E2F7822B8ABB089527B381E090E086
S113046002C0880F991F6A95E2F7822B87BB089513
S113047024B381E090E002C0880F991F6A95E2F7E7
S1130480822B84BB089521B381E090E002C0880FE1
S1130490991F6A95E2F7822B81BB0895813091F010
S11304A028F08230D9F0833029F108952AB381E00D
S11304B090E002C0880F991F6A95E2F78095822325
S11304C08ABB089527B381E090E002C0880F991F8A
S11304D06A95E2F78095822387BB089524B381E06F
S11304E090E002C0880F991F6A95E2F780958223F5
S11304F084BB089521B381E090E002C0880F991F66
S11305006A95E2F78095822381BB08954423A1F183
S1130510813089F028F08230C9F0833011F10895D8
S11305202BB381E090E002C0880F991F6A95E2F72F
S1130530822B8BBB089528B381E090E002C0880F22
S1130540991F6A95E2F7822B88BB089525B381E051
S113055090E002C0880F991F6A95E2F7822B85BB51
S1130560089522B381E090E002C0880F991F6A9534
S1130570E2F7822B82BB0895813091F028F082301B
S1130580D9F0833029F108952BB381E090E002C0C3
S1130590880F991F6A95E2F7809582238BBB089593
S11305A028B381E090E002C0880F991F6A95E2F7B2
S11305B08095822388BB089525B381E090E002C032
S11305C0880F991F6A95E2F78095822385BB089569
S11305D022B381E090E002C0880F991F6A95E2F788
S11305E08095822382BB0895CF93DF93EC0186E04C
S11305F0FE01A2E8B0E001900D928A95E1F793B76D
S11306008881892B83BF8881883029F0882319F059
S11306108CB788608CBF93B78981892B83BF99B7C6
S11306208A81892B89BF8A81882309F078948B81F8
S113063082BF8C819D819093680080936700DF91D5
S1130640CF91089583B7887F83BF08951F920F9237
S11306500FB60F9211242F933F934F935F936F9391
S11306607F938F939F93AF93BF93EF93FF93E09107
S11306706700F09168000995FF91EF91BF91AF91E8
S11306809F918F917F916F915F914F913F912F91A6
S11306900F900FBE0F901F901895BB274A3031F46E
S11306A0992322F4BDE2909581959F4F0C945903B0
S11306B0BB27FB015527AA27880F991FAA1FA41738
S11306C010F0A41B83955051B9F7A05DAA3308F02C
S11306D0A95DA193009779F7B111B1931192CB0160
S11306E00C947203DC01FC01672F71917723E1F70D
S11306F0329704C07C916D9370836291AE17BF07EB
S10B0700C8F30895F894FFCF3B
S9030000FC
