:100000000C942A000C9447000C9447000C94470071
:100010000C9447000C9447000C9447000C94470044
:100020000C9447000C9447000C9483010C947901C4
:100030000C9447000C9447000C9447000C94470024
:100040000C94B4000C9447000C9447000C944700A7
:100050000C94470011241FBECFE5D8E0DEBFCDBF12
:1000600010E0A0E6B0E0E8E5F3E002C005900D92F4
:10007000A036B107D9F720E0A0E6B0E001C01D929C
:10008000AB37B207E1F70E9462000C94AA010C940E
:1000900000008091600090916100A0916200B09199
:1000A00063008D379105A105B10558F40196A11D96
:1000B000B11D8093600090936100A0936200B093A3
:1000C0006300089541E067E081E00E94DB0041E0C9
:1000D00064E080E00E94DB0041E065E080E00E9497
:1000E000DB0041E066E080E00E94DB008BB38061D2
:1000F0008BBB8BB380648BBBE6E6F0E088E080834B
:1001000084E0818382E08283138289E490E0958396
:100110008483CF010E9449018AEF0E947701809178
:10012000600090916100A0916200B09163008D37F2
:100130009105A105B10599F788B3805888BB9BB399
:1001400080E189278BBB9BB380E289278BBB9BB364
:1001500080E489278BBB109260001092610010929E
:10016000620010926300DBCF1F920F920FB60F92C6
:1001700011242F933F934F935F936F937F938F93AC
:100180009F93AF93BF93EF93FF93E0917100F09132
:1001900072000995FF91EF91BF91AF919F918F915F
:1001A0007F916F915F914F913F912F910F900FBE73
:1001B0000F901F9018954423A1F1813089F028F009
:1001C0008230C9F0833011F108952AB381E090E0C4
:1001D00002C0880F991F6A95E2F7822B8ABB0895A7
:1001E00027B381E090E002C0880F991F6A95E2F77B
:1001F000822B87BB089524B381E090E002C0880F72
:10020000991F6A95E2F7822B84BB089521B381E0A0
:1002100090E002C0880F991F6A95E2F7822B81BB9C
:100220000895813091F028F08230D9F0833029F19F
:1002300008952AB381E090E002C0880F991F6A9563
:10024000E2F7809582238ABB089527B381E090E08E
:1002500002C0880F991F6A95E2F78095822387BBB9
:10026000089524B381E090E002C0880F991F6A9539
:10027000E2F78095822384BB089521B381E090E06A
:1002800002C0880F991F6A95E2F78095822381BB8F
:100290000895CF93DF93EC0186E0FE01A5E7B0E07F
:1002A00001900D928A95E1F793B78881892B83BFDE
:1002B0008881883029F0882319F08CB788608CBF3A
:1002C00093B78981892B83BF99B78A81892B89BF8D
:1002D0008A81882309F078948B8182BF8C819D81EB
:1002E0009093650080936400DF91CF9108958CBF57
:1002F00008951F920F920FB60F9211240F900FBE08
:100300000F901F9018951F920F920FB60F92112405
:100310002F933F934F935F936F937F938F939F930D
:10032000AF93BF93EF93FF93E0916400F09165006A
:100330000995FF91EF91BF91AF919F918F917F911F
:100340006F915F914F913F912F910F900FBE0F9042
:080350001F901895F894FFCFEF
:00000001FF
