S0120000415652202D20554152542E7372656380
S11300000C942A000C943C000C943C000C943C008E
S11300100C943C000C943C000C943C000C943C006C
S11300200C943C000C943C000C943C000C943C005C
S11300300C943C000C94E6000C9410010C943C00CD
S11300400C943C000C943C000C943C000C943C003C
S11300500C943C0011241FBECFE5D8E0DEBFCDBF19
S113006020E0A0E6B0E001C01D92A137B207E1F79D
S11300700E9468000C947B010C94000020916000A5
S113008030916100F901E959FF4F8083293031052E
S113009061F0F901E959FF4F80818D3031F0F901A8
S11300A0E959FF4F80818A3061F4F901E959FF4F22
S11300B01082109261001092600081E080936200CF
S11300C008952F5F3F4F309361002093600008959F
S11300D00E94880080E895E20E94A2006EE370E02E
S11300E080E00E94D7000E94840087E690E00E948E
S11300F0CA0087E690E00E94BD008DE00E949A004D
S11301008AE00E949A00F1CF8FB780688FBF08956C
S11301108AB180688AB98AB18F7B8AB98AB18F7DA6
S11301208AB98AB18F7E8AB98AB1877F8AB986E80B
S113013080BD08955D9BFECF8CB908955F9BFECF73
S11301408CB108959C0140E050E060E072E18AE7E0
S113015090E00E943A01329522952F7023273F7038
S11301602327215031092F3F310510F429B908956F
S113017029B9832F8F7080BD0895CF93DF93EC014D
S113018003C00E949A00219688818111FACFDF91E1
S1130190CF910895CF93DF93EC010E949E00899341
S11301A08D30D9F721971882DF91CF910895882354
S11301B019F0813031F00895709366006093650002
S11301C00895709364006093630008951F920F92E2
S11301D00FB60F9211242F933F934F935F936F9316
S11301E07F938F939F93AF93BF93EF93FF93E0918C
S11301F06500F0916600309711F08CB10995FF917C
S1130200EF91BF91AF919F918F917F916F915F918A
S11302104F913F912F910F900FBE0F901F90189503
S11302201F920F920FB60F9211242F933F934F9367
S11302305F936F937F938F939F93AF93BF93EF934A
S1130240FF93E0916300F0916400309711F08CB15A
S11302500995FF91EF91BF91AF919F918F917F91FC
S11302606F915F914F913F912F910F900FBE0F901F
S11302701F901895052E97FB1EF400940E945101BF
S113028057FD07D00E94590107FC03D04EF40C948B
S1130290510150954095309521953F4F4F4F5F4FF9
S11302A0089590958095709561957F4F8F4F9F4FDE
S11302B00895A1E21A2EAA1BBB1BFD010DC0AA1FA3
S11302C0BB1FEE1FFF1FA217B307E407F50720F0BB
S11302D0A21BB30BE40BF50B661F771F881F991F36
S11302E01A9469F760957095809590959B01AC017F
S10D02F0BD01CF010895F894FFCF7B
S9030000FC
